:020000040800F2
:1000000000000120050300080B030008110300088D
:1000100033030008390300085B03000800000000F8
:100020000000000000000000000000007D03000848
:100030008303000800000000890300088F03000804
:10004000AD030008AD030008AD030008AD030008D0
:10005000AD030008AD030008AD030008AD030008C0
:10006000AD030008AD030008AD030008AD030008B0
:10007000AD030008AD030008AD030008AD030008A0
:10008000AD030008AD030008AD0300080000000048
:10009000000000000000000000000000AD030008A8
:1000A000AD030008AD030008AD030008AD03000870
:1000B000AD030008AD030008AD030008AD03000860
:1000C000AD030008AD030008AD030008AD03000850
:1000D000AD030008AD030008AD03000800000000F8
:1000E000AD030008AD030008AD03000800000000E8
:1000F000000000000000000000000000AD03000848
:1001000000000000AD030008AD030008AD030008C7
:1001100000000000000000000000000000000000DF
:10012000AD030008AD030008AD030008AD030008EF
:10013000AD03000800000000000000000000000007
:10014000000000000000000000000000AD030008F7
:10015000AD030008AD030008AD030008AD030008BF
:10016000AD030008AD03000800000000000000001F
:10017000000000000000000000000000000000007F
:1001800000000000AD0300080000000000000000B7
:10019000AD03000880B596B000AF00F037F94F4BC3
:1001A0007B6524E07B6D1A1D7A651B683B647B6D63
:1001B0001A1D7A651B68FB637B6D1A1D7A651B68C7
:1001C000BB633B6C7B63FB6B3B63BB6BFB623B6B5F
:1001D000BB6207E07A6B131D7B63BB6A191DB962B2
:1001E00012681A60FA6ABB6A9A42F3D800BF7B6D44
:1001F0003B4A9342D6D33B4B3B651AE03B6D1A1DFD
:100200003A651B68BB643B6D1A1D3A651B687B64CD
:10021000BB6C7B627B6C3B627B6AFB6104E0FB69CD
:100220001A1DFA6100221A603A6AFB699A42F6D8EE
:1002300000BF3B6D2C4A9342E0D300F0F5F83A1D25
:1002400007F108031146184600F0CEF8274A284B5C
:10025000D31A9B103B610023FB6007E0244AFB6834
:1002600052F823309847FB680133FB603A69FB681A
:100270009A42F3DC1F4A204BD31A9B103B610023A8
:10028000FB6007E01C4AFB6852F823309847FB6884
:100290000133FB603A69FB689A42F3DC00BFBB683C
:1002A0007A681146184600F06BF9F864134A144B4B
:1002B000D31A9B10BB61BB697B6108E07B69013B82
:1002C0000F4A52F8233098477B69013B7B617B6979
:1002D000002BF3DC00BFF86C00F080F8B4030008DA
:1002E000CC030008CC030008DC030008DC03000892
:1002F000DC030008DC030008DC030008DC03000862
:10030000DC0300082548004700BF80B400AFFEE7CB
:100310001EF0040F0CBFEFF30880EFF30980714665
:100320001F4A104700BF80B483B000AF78603960C7
:10033000FEE780B400AFFEE71EF0040F0CBFEFF342
:100340000880EFF309807146164A104700BF80B459
:1003500083B000AF78603960FEE71EF0040F0CBF79
:10036000EFF30880EFF3098071460F4A104700BF92
:1003700080B483B000AF78603960FEE780B400AF2E
:10038000FEE780B400AFFEE780B400AFFEE780B4C4
:1003900000AF00BFBD4680BC70470000950100085B
:1003A000270300084F0300087103000880B400AF62
:0203B000FEE766
:1003B40050110008000000201C000020501100080B
:1003C40000000010000000101C000020200000208D
:0803D400000000100000001001
:1003DC0080B582B000AF786000F03CF880B483B098
:1003EC0000AF786039607B6801221A603B68034A71
:1003FC001A6000BF0C37BD4680BC7047000000205F
:10040C0080B500AF00F02AF8024B034A9A6000BF97
:10041C0080BD00BF00ED00E00000000880B500AF1B
:10042C0000F028F800BF80BD80B400AFBFF34F8F41
:10043C0000BF064BDB6803F4E0620449044B134332
:10044C00CB60BFF34F8F00BF00BFFDE700ED00E0B6
:10045C000400FA0580B500AFFFF7E6FF80B400AFEB
:10046C00034B4FF000629A6000BFBD4680BC7047E2
:10047C0000ED00E080B487B000AF00233B610023A7
:10048C007B610223FB600023BB6002237B60344B47
:10049C009B6803F00C033B613B69082B11D03B6953
:1004AC00082B44D83B69002B03D03B69042B04D0A8
:1004BC003DE02C4B2C4A1A603DE02A4B2B4A1A602B
:1004CC0039E0274B5B689B0D03F00103BB60244BA9
:1004DC005B6803F03F037B60BB68002B0CD0234AA6
:1004EC007B68B2FBF3F31E4A52689209C2F308020E
:1004FC0002FB03F37B610BE01B4A7B68B2FBF3F35B
:10050C00174A52689209C2F3080202FB03F37B619B
:10051C00134B5B681B0C03F0030301335B00FB60A4
:10052C007A69FB68B2FBF3F30E4A136003E00D4BE0
:10053C000D4A1A6000BF0A4B9B681B0903F00F039E
:10054C000B4AD35C3B61074B1A683B6922FA03F3F5
:10055C00044A136000BF1C37BD4680BC704700BF07
:10056C0000380240080000200024F40000127A0039
:10057C004011000880B582B000AF00F047FA0020AF
:10058C0000F052FA012000F04FFA00F0A1FA00231B
:10059C007B6000237B6009E07B68D9B200230122D9
:1005AC00412000F047FB7B6801337B607B68062BA6
:1005BC00F2D900F0BBFA00233B6002E03B68013348
:1005CC003B603B6842F20F729342F7D9F1E70000AF
:1005DC0080B582B000AF0023FB7100F01BFB03461B
:1005EC00BB71BB79092B00F20B8201A252F823F0EC
:1005FC002506000889060008ED06000851070008CA
:10060C00B5070008190800087D080008E108000873
:10061C0045090008A909000801220021412000F029
:10062C0065FC0346FB7101220121412000F05EFCB8
:10063C000346FB7101220221412000F057FC0346C6
:10064C00FB7101220321412000F050FC0346FB7199
:10065C0001220421412000F049FC0346FB710122D8
:10066C000521412000F042FC0346FB7100220621CB
:10067C00412000F03BFC0346FB71C2E1002200214B
:10068C00412000F033FC0346FB7101220121412083
:10069C0000F02CFC0346FB7101220221412000F0EA
:1006AC0025FC0346FB7100220321412000F01EFCB7
:1006BC000346FB7100220421412000F017FC034685
:1006CC00FB7100220521412000F010FC0346FB7158
:1006DC0000220621412000F009FC0346FB7190E149
:1006EC0001220021412000F001FC0346FB71012294
:1006FC000121412000F0FAFB0346FB71002202218C
:10070C00412000F0F3FB0346FB7101220321412041
:10071C0000F0ECFB0346FB7101220421412000F0A8
:10072C00E5FB0346FB7100220521412000F0DEFBB6
:10073C000346FB7101220621412000F0D7FB034642
:10074C00FB715EE101220021412000F0CFFB03464A
:10075C00FB7101220121412000F0C8FB0346FB7113
:10076C0001220221412000F0C1FB0346FB71012252
:10077C000321412000F0BAFB0346FB710022042147
:10078C00412000F0B3FB0346FB7100220521412000
:10079C0000F0ACFB0346FB7101220621412000F066
:1007AC00A5FB0346FB712CE100220021412000F047
:1007BC009DFB0346FB7101220121412000F096FBB9
:1007CC000346FB7101220221412000F08FFB0346FE
:1007DC00FB7100220321412000F088FB0346FB71D2
:1007EC0000220421412000F081FB0346FB71012211
:1007FC000521412000F07AFB0346FB710122062102
:10080C00412000F073FB0346FB71FAE0012200214A
:10081C00412000F06BFB0346FB71002201214120BB
:10082C0000F064FB0346FB7101220221412000F021
:10083C005DFB0346FB7101220321412000F056FBB6
:10084C000346FB7100220421412000F04FFB0346BC
:10085C00FB7101220521412000F048FB0346FB718E
:10086C0001220621412000F041FB0346FB71C8E048
:10087C0001220021412000F039FB0346FB710022CC
:10088C000121412000F032FB0346FB7101220221C1
:10089C00412000F02BFB0346FB7101220321412078
:1008AC0000F024FB0346FB7101220421412000F0DF
:1008BC001DFB0346FB7101220521412000F016FBB4
:1008CC000346FB7101220621412000F00FFB034679
:1008DC00FB7196E001220021412000F007FB03464A
:1008EC00FB7101220121412000F000FB0346FB714A
:1008FC0001220221412000F0F9FA0346FB7100228B
:10090C000321412000F0F2FA0346FB71002204217E
:10091C00412000F0EBFA0346FB7100220521412037
:10092C0000F0E4FA0346FB7100220621412000F09E
:10093C00DDFA0346FB7164E001220021412000F046
:10094C00D5FA0346FB7101220121412000F0CEFAB9
:10095C000346FB7101220221412000F0C7FA034635
:10096C00FB7101220321412000F0C0FA0346FB7108
:10097C0001220421412000F0B9FA0346FB71012247
:10098C000521412000F0B2FA0346FB710122062139
:10099C00412000F0ABFA0346FB7132E0012200214A
:1009AC00412000F0A3FA0346FB71012201214120F2
:1009BC0000F09CFA0346FB7101220221412000F059
:1009CC0095FA0346FB7100220321412000F08EFAB8
:1009DC000346FB7100220421412000F087FA0346F4
:1009EC00FB7101220521412000F080FA0346FB71C6
:1009FC0001220621412000F079FA0346FB7100E048
:100A0C0000BF00BF0837BD4680BD00BF80B400AF3B
:100A1C00044B1B68034A43F00103136000BFBD463F
:100A2C0080BC70470038024080B485B000AF0346EC
:100A3C00FB71FB795B09FB73FB7903F01F03BB7341
:100A4C00FB7B032B36D801A252F823F0690A00086D
:100A5C007F0A0008950A0008AB0A0008184B1B68AF
:100A6C00BA7B012101FA02F21146154A0B431360BD
:100A7C0021E0144B1B68BA7B012101FA02F21146EA
:100A8C00104A0B43136016E00F4B1B68BA7B012115
:100A9C0001FA02F211460C4A0B4313600BE00B4BAC
:100AAC001B68BA7B012101FA02F21146074A0B437B
:100ABC00136000E000BF00BF1437BD4680BC704718
:100ACC00303802403438024040380240443802404A
:100ADC0080B582B000AF0023FB710023FB7108E0EE
:100AEC00F97901230022422000F0A4F8FB790133AC
:100AFC00FB71FB79022BF3D90523FB710EE0F9791D
:100B0C0000230122422000F095F8FB7901221946BE
:100B1C00422000F0EBF9FB790133FB71FB79082BD8
:100B2C00EDD900BF00BF0837BD4680BD80B584B08D
:100B3C0000AF0523FB735DE0FB7B002219464220CE
:100B4C0000F0D4F90346FB710023BB7344E0BB7B7C
:100B5C001946422000F09EFA0346BB710023BB608D
:100B6C0002E0BB680133BB60BB6840F6B73293420E
:100B7C00F7D9BB7B1946422000F08CFA03467B71F7
:100B8C007B79002B20D17A79BB799A421CD11D4BF1
:100B9C001B78012B1CD11C4B1B78012B18D1FB7B18
:100BAC005A1FB97B194813465B00134403440B448A
:100BBC001A78174B1A70144B00221A70FFF708FDA5
:100BCC00104B00221A7003E00E4B01221A7000E049
:100BDC0000BFBB7B0133BB73BB7B022BB7D9FB7B49
:100BEC0001221946422000F081F90346FB71FB7B80
:100BFC000133FB73FB7B082B9ED900BF00BF103762
:100C0C00BD4680BD1E0000200C00002010000020FE
:100C1C001D00002080B400AF044B01221A70044B5D
:100C2C001B781846BD4680BC704700BF0C000020E6
:100C3C001D00002090B482B000AF04460846114657
:100C4C001A462346FB710346BB710B467B71134658
:100C5C003B71FB79413B032B00F2238101A252F83B
:100C6C0023F000BF810C0008190D0008B10D00081D
:100C7C00190E0008924B1B68BA795200032101FA35
:100C8C0002F2D24311468E4A0B4013608C4B1B6808
:100C9C007979BA79520001FA02F21146884A0B436B
:100CAC0013607B79002B17D1864B1B68BA795200E5
:100CBC00032101FA02F2D2431146824A0B4013601F
:100CCC00804B1B683979BA79520001FA02F211464D
:100CDC007C4A0B431360E6E07B79012B40F0E38008
:100CEC00794B1B68BA79012101FA02F2D243114601
:100CFC00754A0B401360744B1B683979BA7901FA49
:100D0C0002F21146704A0B431360CCE06F4B1B6828
:100D1C00BA795200032101FA02F2D24311466B4A0E
:100D2C000B401360694B1B687979BA79520001FA50
:100D3C0002F21146654A0B4313607B79002B17D1E5
:100D4C00634B1B68BA795200032101FA02F2D243B9
:100D5C0011465F4A0B4013605D4B1B683979BA79B9
:100D6C00520001FA02F21146594A0B4313609CE0FF
:100D7C007B79012B40F09980564B1B68BA79012185
:100D8C0001FA02F2D2431146524A0B401360514B06
:100D9C001B683979BA7901FA02F211464D4A0B43B4
:100DAC00136082E07B79002B17D14B4B1B68BA790F
:100DBC005200032101FA02F2D2431146464A0B407B
:100DCC001360454B1B683979BA79520001FA02F26B
:100DDC001146414A0B43136069E07B79012B66D1C4
:100DEC003E4B1B68BA79012101FA02F2D24311463B
:100DFC003A4A0B401360394B1B683979BA7901FABE
:100E0C0002F21146354A0B43136050E0344B1B6819
:100E1C00BA795200032101FA02F2D2431146304A48
:100E2C000B4013602E4B1B687979BA79520001FA8A
:100E3C0002F211462A4A0B4313607B79002B17D11F
:100E4C00284B1B68BA795200032101FA02F2D243F3
:100E5C001146244A0B401360224B1B683979BA792E
:100E6C00520001FA02F211461E4A0B43136020E0B5
:100E7C007B79012B1DD11C4B1B68BA79012101FA1E
:100E8C0002F2D2431146184A0B401360164B1B68F2
:100E9C003979BA7901FA02F21146134A0B431360FD
:100EAC0007E000BF06E000BF04E000BF02E000BFA7
:100EBC0000E000BF00BF0837BD4690BC704700BFC4
:100ECC00000002400C0002400400024000040240FA
:100EDC000C040240040402400C08024004080240C6
:100EEC00000C02400C0C0240040C024080B485B093
:100EFC0000AF0346FB710B46BB7113467B71FB794C
:100F0C00413B032B00F2B08001A252F823F000BF4A
:100F1C002D0F00087F0F0008D10F000823100008C8
:100F2C00544B1B68BA795200032101FA02F21A40A1
:100F3C00BB795B0022FA03F3FB73FB7B012B16D10D
:100F4C004D4B1B68BA79012101FA02F2D2431146CA
:100F5C00494A0B401360484B1B687979BA7901FAFE
:100F6C0002F21146444A0B43136001237DE0002337
:100F7C007BE0424B1B68BA795200032101FA02F262
:100F8C001A40BB795B0022FA03F3FB73FB7B012B4A
:100F9C0016D13B4B1B68BA79012101FA02F2D243FC
:100FAC001146374A0B401360354B1B687979BA7977
:100FBC0001FA02F21146324A0B431360012354E04A
:100FCC00002352E02F4B1B68BA795200032101FA1F
:100FDC0002F21A40BB795B0022FA03F3FB73FB7B32
:100FEC00012B16D1284B1B68BA79012101FA02F2A8
:100FFC00D2431146244A0B401360234B1B6879796A
:10100C00BA7901FA02F211461F4A0B43136001230D
:10101C002BE0002329E01D4B1B68BA7952000321F9
:10102C0001FA02F21A40BB795B0022FA03F3FB735C
:10103C00FB7B012B16D1164B1B68BA79012101FAE7
:10104C0002F2D2431146124A0B401360104B1B683C
:10105C007979BA7901FA02F211460D4A0B43136001
:10106C00012302E0002300E0002318461437BD469C
:10107C0080BC704700000240140002400004024093
:10108C00140402400008024014080240000C024004
:10109C00140C024080B485B000AF03460A46FB71C5
:1010AC001346BB710023FB73FB79413B032B33D8F5
:1010BC0001A252F823F000BFD5100008E910000877
:1010CC00FD10000811110008164B1A68BB7922FAA2
:1010DC0003F3DBB203F00103FB731DE0124B1A6840
:1010EC00BB7922FA03F3DBB203F00103FB7313E0C9
:1010FC000E4B1A68BB7922FA03F3DBB203F001033F
:10110C00FB7309E00A4B1A68BB7922FA03F3DBB2D2
:10111C0003F00103FB7300BFFB7B18461437BD467D
:10112C0080BC7047100002401004024010080240BE
:10113C00100C02400000000000000000010203043B
:04114C000607080981
:101150001C000020000000000024F40001FFFFFF3D
:0C11600001020304050607080900000056
:040000050800019559
:00000001FF
